:100000000C943D010C945A010C945A010C945A0121
:100010000C945A010C945A010C945A010C945A01F4
:100020000C945A010C945A010C945A010C945A01E4
:100030000C945A010C945A010C945A010C945A01D4
:100040000C945A010C945A010C946E040C945A01AD
:100050000C945A010C945A010C945A010C945A01B4
:100060000C945A010C945A011200AE01A83F0120D1
:10007000000221007F02220007004001D30000A1FE
:1000800000C801DA1201817F00A400A601D5800119
:10009000D9C201DB20018D1400AF000000000081F7
:1000A000811881810007000700147F147F14242A1F
:1000B0007F2A122313086462364955225000050333
:1000C0000000001C2241000041221C0014083E08D0
:1000D0001408083E08080050300000080808080806
:1000E000006060000020100804023E5149453E00B7
:1000F000427F400042615149462141454B3118142D
:10010000127F1027454545393C4A4949300171095C
:1001100005033649494936064949291E0036360045
:100120000000563600000814224100141414141460
:1001300000412214080201510906324979413E7EEC
:100140001111117E7F494949363E414141227F418B
:1001500041221C7F494949417F090909013E414922
:10016000497A7F0808087F00417F41002040413FD5
:10017000017F081422417F404040407F020C027FF3
:100180007F0408107F3E4141413E7F090909063E38
:100190004151215E7F0919294646494949310101EA
:1001A0007F01013F4040403F1F2040201F3F40381B
:1001B000403F6314081463070870080761514945FC
:1001C00043007F41410002040810200041417F00AC
:1001D00004020102044040404040000102040020AB
:1001E000545454787F484444383844444420384474
:1001F00044487F3854545418087E0901020C525266
:10020000523E7F0804047800447D40002040443D75
:10021000007F1028440000417F40007C04180478CF
:100220007C0804047838444444387C1414140808C6
:100230001414147C7C080404084854545420043FCB
:100240004440203C4040207C1C2040201C3C40304E
:10025000403C44281028440C5050503C4464544CBA
:1002600044000836410000007F00000041360800CD
:100270001008081008000000000011241FBECFEF76
:10028000D8E0DEBFCDBF11E0A0E0B1E0EAEFFCE0D6
:1002900002C005900D92A436B107D9F721E0A4E67B
:1002A000B1E001C01D92A936B207E1F70E94200219
:1002B0000C947B060C940000ECE7F0E08081887FD2
:1002C0008083EAE7F0E080818064808380917A0017
:1002D00084FFFCCFEAE7F0E0808180618083809139
:1002E0007800909179000895EAE7F0E080818068D5
:1002F0008083808187608083ACE7B0E08C918064EC
:100300008C938081806480830895CF93DF93CDB7F1
:10031000DEB7C154D1090FB6F894DEBF0FBECDBF12
:100320006AE08EE10E94CD0260E080E091E00E94F0
:100330009A030E945C01BC0180E090E00E944B05A2
:1003400020E030E040EA50E40E94D90520E030ECA3
:100350004FE754E40E94A3040E941505DC01CB0181
:100360004AE0BE016F5F7F4F0E9446066BE08FE25E
:100370000E94CD0260E0CE0101960E949A03CF5BFD
:10038000DF4F0FB6F894DEBF0FBECDBFDF91CF9128
:10039000089582E08093B800E9EBF0E080819081DD
:1003A00082708160892B80830895E9EBF0E0808181
:1003B0008775808384EA8093BC008091BC00882389
:1003C000E4F78091B900887F883049F08091B900C6
:1003D000887F803131F08091B900887F089580E076
:1003E000089580E00895880F8093BB0084E880938F
:1003F000BC008091BC008823E4F78091B900887F1D
:10040000883121F08091B900887F089580E00895B7
:100410008093BB0084E88093BC008091BC0088235B
:10042000E4F78091B900887F883221F08091B9008B
:10043000887F089580E0089584E98093BC00089542
:100440000E94B1030E946F02C0E0D0E01EC060E0D5
:100450008CE10E94CD0260E088E091E00E949A0366
:100460006FE08C2F0E94CD0260E085E191E00E9458
:100470009A032FEF89EF90E0215080409040E1F700
:1004800000C000000E946F022196CF36D105FCF219
:100490000E9474018FEC90E00E94ED0384B18863A8
:1004A00084B985B1886385B978940E948501FCCFB1
:1004B000CF93C82F0E94D501811103C08C2F0E94B9
:1004C000F301CF910895CF93C82F80E80E940802CE
:1004D000811103C08C2F0E940802CF910895CF9301
:1004E000DF938CE30E945802811115C080E40E94C2
:1004F0000802811110C0C0E0D0E006C080E00E9478
:100500000802811108C02196C11584E0D807B0F314
:100510000E941C0280E0DF91CF9108950F931F93FA
:10052000CF93DF93C82FD62F142F022F8CE30E9476
:10053000580281112DC081E20E946302811128C0FE
:100540008C2F0E946302811123C08D2F0E946302B1
:1005500081111EC08C2F90E09093670180936601FB
:1005600082E20E946302811113C0812F0E94630204
:1005700081110EC0802F0E946302811109C0812F5A
:1005800090E090936501809364010E941C0280E0DA
:10059000DF91CF911F910F910895462F27E06FE7CC
:1005A0000E948E020895CF938823D4F4C62F67301B
:1005B00098F4109267011092660160916401709145
:1005C00065016F5F7F4F709365016093640180E008
:1005D0000E94CD02811107C0C73020F081E003C026
:1005E00080E001C080E0CF9108950F931F93CF93D7
:1005F000DF93C82F862F8F7090E0009709F03DC0E1
:10060000607F11F4D0E001C0D0E880916601609174
:1006100064018B5F0E94D302811187C08CE30E942A
:100620005802811182C080E40E94080281117DC0BD
:1006300020E020C08C2F90E0809711E0120FFC0189
:10064000EE0FFF1FEE0FFF1FE80FF91FE20FF11D66
:10065000E656FF4F84918D2B0E940802811165C0E0
:100660008091660190916701019690936701809354
:100670006601212F2530F0F247C0019709F043C0F1
:10068000607F11F4D0E001C0D0E8809166016091F4
:100690006401865F0E94D302811147C08CE30E94EF
:1006A0005802811142C080E40E94080281113DC0BD
:1006B00020E026C08C2F90E0809701E0020FFC0123
:1006C000EE0FFF1FEE0FFF1FE80FF91FE20FF11DE6
:1006D000E656FF4F14911D2B812F0E9408028111B5
:1006E00024C0812F0E94080281111FC080916601E1
:1006F0009091670102969093670180936601202F85
:100700002530C0F201C0D0E08D2F0E940802811177
:100710000CC08091660190916701019690936701EA
:10072000809366010E941C0280E0DF91CF911F91AF
:100730000F9108950F931F93CF93DF938C01D62FC2
:10074000C0E004C0CF5F6D2F0E94F502F801EC0FEE
:10075000F11D80818111F6CFDF91CF911F910F9113
:100760000895DF92EF92FF920F931F93CF93DF9341
:10077000E8E6F0E0D4900E94C9018CE30E945802A0
:10078000811123C0C9E6D0E01BC0FE01149131964F
:10079000849122960E946302882369F016C07E012C
:1007A000FFEFEF1AFF0AFE0184910E946302102FEF
:1007B00081110BC0E7010FEF010F1111F0CFDA9497
:1007C000D110E3CF0E941C0280E0DF91CF911F91F6
:1007D0000F91FF90EF90DF900895E2ECF0E0208120
:1007E0002F73208322E02093C0009093C500809354
:1007F000C40086E08083E1ECF0E088E180838081C2
:100800008068808308958235F1F030F4823409F4F1
:1008100056C08734B1F10895873621F1823721F02F
:10082000823609F05AC03CC085B1806285B90E9409
:100830006F026BE08EE10E94CD0260E087E191E003
:100840000E949A03089585B18F7D85B90E946F0239
:100850006BE08EE10E94CD0260E084E291E00E94B4
:100860009A03089585B1806185B90E946F026BE09B
:100870008EE10E94CD0260E080E391E00E949A0345
:10088000089585B18F7E85B90E946F026BE08EE17D
:100890000E94CD0260E08EE391E00E949A030895E9
:1008A00085B1886085B90E946F026BE08EE10E947D
:1008B000CD0260E08BE491E00E949A03089585B137
:1008C000877F85B90E946F026BE08EE10E94CD02A6
:1008D00060E088E591E00E949A0308951F920F92CC
:1008E0000FB60F9211242F933F934F935F936F9303
:1008F0007F938F939F93AF93BF93EF93FF930E9448
:100900006F028091C60080936801809168010E9407
:1009100003042FEF8BE792E9215080409040E1F7EC
:1009200000C00000FF91EF91BF91AF919F918F9117
:100930007F916F915F914F913F912F910F900FBEDB
:100940000F901F9018950E94B7040C949F050E9469
:10095000980558F00E94910540F029F45F3F29F076
:100960000C94880551110C94D3050C948E050E94AB
:10097000B00568F39923B1F3552391F3951B550BFB
:10098000BB27AA2762177307840738F09F5F5F4F62
:10099000220F331F441FAA1FA9F335D00E2E3AF0A1
:1009A000E0E832D091505040E695001CCAF72BD0B9
:1009B000FE2F29D0660F771F881FBB1F261737070A
:1009C0004807AB07B0E809F0BB0B802DBF01FF273C
:1009D00093585F4F3AF09E3F510578F00C9488058C
:1009E0000C94D3055F3FE4F3983ED4F38695779556
:1009F0006795B795F7959F5FC9F7880F911D9695F5
:100A0000879597F90895E1E0660F771F881FBB1F50
:100A1000621773078407BA0720F0621B730B840BFD
:100A2000BA0BEE1F88F7E09508950E941C056894A4
:100A3000B1110C94D30508950E94B80588F09F5712
:100A400098F0B92F9927B751B0F0E1F0660F771FF2
:100A5000881F991F1AF0BA95C9F714C0B13091F0E8
:100A60000E94D205B1E008950C94D205672F782F2B
:100A70008827B85F39F0B93FCCF3869577956795AD
:100A8000B395D9F73EF490958095709561957F4F19
:100A90008F4F9F4F0895E89409C097FB3EF49095BF
:100AA0008095709561957F4F8F4F9F4F9923A9F047
:100AB000F92F96E9BB279395F695879577956795D6
:100AC000B795F111F8CFFAF4BB0F11F460FF1BC01A
:100AD0006F5F7F4F8F4F9F4F16C0882311F096E9AD
:100AE00011C0772321F09EE8872F762F05C066235B
:100AF00071F096E8862F70E060E02AF09A95660F14
:100B0000771F881FDAF7880F9695879597F90895CC
:100B100097F99F6780E870E060E008959FEF80ECB0
:100B2000089500240A941616170618060906089553
:100B300000240A9412161306140605060895092EB9
:100B40000394000C11F4882352F0BB0F40F4BF2B28
:100B500011F460FF04C06F5F7F4F8F4F9F4F089568
:100B600057FD9058440F551F59F05F3F71F047955E
:100B7000880F97FB991F61F09F3F79F08795089543
:100B8000121613061406551FF2CF4695F1DF08C062
:100B9000161617061806991FF1CF8695710561057F
:100BA00008940895E894BB2766277727CB0197F927
:100BB00008950E94EC050C949F050E94910538F061
:100BC0000E94980520F0952311F00C9488050C9450
:100BD0008E0511240C94D3050E94B00570F3959FE7
:100BE000C1F3950F50E0551F629FF001729FBB2724
:100BF000F00DB11D639FAA27F00DB11DAA1F649FC0
:100C00006627B00DA11D661F829F2227B00DA11D72
:100C1000621F739FB00DA11D621F839FA00D611DF8
:100C2000221F749F3327A00D611D231F849F600D19
:100C3000211D822F762F6A2F11249F5750409AF042
:100C4000F1F088234AF0EE0FFF1FBB1F661F771FCE
:100C5000881F91505040A9F79E3F510580F00C9499
:100C600088050C94D3055F3FE4F3983ED4F3869552
:100C700077956795B795F795E7959F5FC1F7FE2B39
:100C8000880F911D9695879597F90895BB274A304F
:100C900031F4992322F4BDE2909581959F4F0C94F5
:100CA0005206BB27FB015527AA27880F991FAA1FA9
:100CB000A41710F0A41B83955051B9F7A05DAA3377
:100CC00008F0A95DA193009779F7B111B193119242
:100CD000CB010C946B06DC01FC01672F719177232B
:100CE000E1F7329704C07C916D9370836291AE17E7
:0A0CF000BF07C8F30895F894FFCF82
:100CFA00566F6C74616A65004143544956494441D0
:100D0A0044204956002D004C454420524F4A4F205A
:100D1A004F4646004C454420524F4A4F204F4E0002
:100D2A004C4544205645524445204F4646004C45C2
:100D3A0044205645524445204F4E004C45442041DC
:100D4A005A554C204F4646004C454420415A554C72
:040D5A00204F4E00D8
:00000001FF
