:100000000C943D010C945A010C945A010C945A0121
:100010000C945A010C945A010C945A010C945A01F4
:100020000C945A010C945A010C945A010C945A01E4
:100030000C945A010C945A010C945A010C945A01D4
:100040000C945A010C945A010C9495040C945A0186
:100050000C945A010C945A010C945A010C945A01B4
:100060000C945A010C945A011200AE01A83F0120D1
:10007000000221007F02220007004001D30000A1FE
:1000800000C801DA1201817F00A400A601D5800119
:10009000D9C201DB20018D1400AF000000000081F7
:1000A000811881810007000700147F147F14242A1F
:1000B0007F2A122313086462364955225000050333
:1000C0000000001C2241000041221C0014083E08D0
:1000D0001408083E08080050300000080808080806
:1000E000006060000020100804023E5149453E00B7
:1000F000427F400042615149462141454B3118142D
:10010000127F1027454545393C4A4949300171095C
:1001100005033649494936064949291E0036360045
:100120000000563600000814224100141414141460
:1001300000412214080201510906324979413E7EEC
:100140001111117E7F494949363E414141227F418B
:1001500041221C7F494949417F090909013E414922
:10016000497A7F0808087F00417F41002040413FD5
:10017000017F081422417F404040407F020C027FF3
:100180007F0408107F3E4141413E7F090909063E38
:100190004151215E7F0919294646494949310101EA
:1001A0007F01013F4040403F1F2040201F3F40381B
:1001B000403F6314081463070870080761514945FC
:1001C00043007F41410002040810200041417F00AC
:1001D00004020102044040404040000102040020AB
:1001E000545454787F484444383844444420384474
:1001F00044487F3854545418087E0901020C525266
:10020000523E7F0804047800447D40002040443D75
:10021000007F1028440000417F40007C04180478CF
:100220007C0804047838444444387C1414140808C6
:100230001414147C7C080404084854545420043FCB
:100240004440203C4040207C1C2040201C3C40304E
:10025000403C44281028440C5050503C4464544CBA
:1002600044000836410000007F00000041360800CD
:100270001008081008000000000011241FBECFEF76
:10028000D8E0DEBFCDBF11E0A0E0B1E0EEE0FAE0E3
:1002900002C005900D92AC32B107D9F721E0ACE273
:1002A000B1E001C01D92A133B207E1F70E94C8027C
:1002B0000C9405050C940000ECE7F0E08081887F49
:1002C0008083EAE7F0E080818064808380917A0017
:1002D00084FFFCCFEAE7F0E0808180618083809139
:1002E0007800909179000895ECE7F0E08081887FB4
:1002F00081608083EAE7F0E0808180648083809180
:100300007A0084FFFCCFEAE7F0E08081806180839F
:1003100080917800909179000895ECE7F0E0808179
:10032000887F82608083EAE7F0E080818064808358
:1003300080917A0084FFFCCFEAE7F0E08081806161
:10034000808380917800909179000895EAE7F0E049
:10035000808180688083808187608083ACE7B0E0A3
:100360008C9180648C93808188608083808180649C
:10037000808308951F93CF93DF9300D000D01F9206
:10038000CDB7DEB76AE080E00E946E0360E083E0F4
:1003900091E00E943B040E945C01182F4AE0BE01DC
:1003A0006F5F7F4F0E94D0046BE080E00E946E037D
:1003B00060E0CE0101960E943B040E9410038FEA88
:1003C00094E00197F1F700C000006DE0812F0E94DA
:1003D0006E0360E089E091E00E943B040F900F9073
:1003E0000F900F900F90DF91CF911F9108951F9361
:1003F000CF93DF9300D000D01F92CDB7DEB76AE075
:1004000088E20E946E0360E08BE091E00E943B0472
:100410000E947401182F4AE0BE016F5F7F4F0E9457
:10042000D0046BE088E20E946E0360E0CE0101968A
:100430000E943B040E9410038FE594E00197F1F7BE
:1004400000C000006EE0812F0E946E0360E081E139
:1004500091E00E943B040F900F900F900F900F902F
:10046000DF91CF911F9108951F93CF93DF9300D019
:1004700000D01F92CDB7DEB76AE080E50E946E0320
:1004800060E083E191E00E943B040E948D01182FFF
:100490004AE0BE016F5F7F4F0E94D0046BE082E5AF
:1004A0000E946E0360E0CE0101960E943B040E9410
:1004B00010038FE094E00197F1F700C000006FE0B7
:1004C000812F0E946E0360E089E191E00E943B046D
:1004D0000F900F900F900F900F90DF91CF911F9181
:1004E000089582E08093B800E9EBF0E0808190818C
:1004F00082708160892B80830895E9EBF0E0808130
:100500008775808384EA8093BC008091BC00882337
:10051000E4F78091B900887F883049F08091B90074
:10052000887F803131F08091B900887F089580E024
:10053000089580E00895880F8093BB0084E880933D
:10054000BC008091BC008823E4F78091B900887FCB
:10055000883121F08091B900887F089580E0089566
:100560008093BB0084E88093BC008091BC0088230A
:10057000E4F78091B900887F883221F08091B9003A
:10058000887F089580E0089584E98093BC000895F1
:100590000E9452040E941003C0E0D0E01EC060E040
:1005A00081E20E946E0360E08BE191E00E943B04D7
:1005B0006FE08C2F0E946E0360E089E291E00E9460
:1005C0003B042FEF89EF90E0215080409040E1F70D
:1005D00000C000000E9410032196CA36D105FCF22B
:1005E0000E94A6010E94BA010E94F7010E943402F3
:1005F000F9CFCF93C82F0E947D02811103C08C2FA9
:100600000E949B02CF910895CF93C82F80E80E944B
:10061000B002811103C08C2F0E94B002CF910895C7
:10062000CF93DF938CE30E94F902811115C080E41F
:100630000E94B002811110C0C0E0D0E006C080E08E
:100640000E94B002811108C02196C11584E0D8072C
:10065000B0F30E94C40280E0DF91CF9108950F9320
:100660001F93CF93DF93C82FD62F142F022F8CE325
:100670000E94F90281112DC081E20E9404038111C0
:1006800028C08C2F0E940403811123C08D2F0E944B
:10069000040381111EC08C2F90E090932F01809352
:1006A0002E0182E20E940403811113C0812F0E9457
:1006B000040381110EC0802F0E940403811109C020
:1006C000812F90E090932D0180932C010E94C40211
:1006D00080E0DF91CF911F910F910895462F27E081
:1006E0006FE70E942F030895CF938823D4F4C62F79
:1006F000673098F410922F0110922E0160912C0116
:1007000070912D016F5F7F4F70932D0160932C01CD
:1007100080E00E946E03811107C0C73020F081E0A5
:1007200003C080E001C080E0CF9108950F931F9334
:10073000CF93DF93C82F862F8F7090E0009709F03A
:100740003DC0607F11F4D0E001C0D0E880912E015F
:1007500060912C018B5F0E947403811187C08CE330
:100760000E94F902811182C080E40E94B0028111CE
:100770007DC020E020C08C2F90E0809711E0120F08
:10078000FC01EE0FFF1FEE0FFF1FE80FF91FE20F36
:10079000F11DE656FF4F84918D2B0E94B00281110E
:1007A00065C080912E0190912F01019690932F01A9
:1007B00080932E01212F2530F0F247C0019709F0D8
:1007C00043C0607F11F4D0E001C0D0E880912E01D9
:1007D00060912C01865F0E947403811147C08CE3F5
:1007E0000E94F902811142C080E40E94B00281118E
:1007F0003DC020E026C08C2F90E0809701E0020FE2
:10080000FC01EE0FFF1FEE0FFF1FE80FF91FE20FB5
:10081000F11DE656FF4F14911D2B812F0E94B0024F
:10082000811124C0812F0E94B00281111FC08091CC
:100830002E0190912F01029690932F0180932E010B
:10084000202F2530C0F201C0D0E08D2F0E94B002D1
:1008500081110CC080912E0190912F0101969093EF
:100860002F0180932E010E94C40280E0DF91CF917E
:100870001F910F9108950F931F93CF93DF938C01D6
:10088000D62FC0E004C0CF5F6D2F0E949603F80101
:10089000EC0FF11D80818111F6CFDF91CF911F9177
:1008A0000F910895DF92EF92FF920F931F93CF93D2
:1008B000DF93E8E6F0E0D4900E9471028CE30E949E
:1008C000F902811123C0C9E6D0E01BC0FE011491DA
:1008D0003196849122960E940403882369F016C001
:1008E0007E01FFEFEF1AFF0AFE0184910E940403CC
:1008F000102F81110BC0E7010FEF010F1111F0CF85
:10090000DA94D110E3CF0E94C40280E0DF91CF914E
:100910001F910F91FF90EF90DF9008959091C0008C
:1009200095FFFCCF8093C60008951F920F920FB6DB
:100930000F9211242F933F934F935F936F937F9365
:100940008F939F93AF93BF93EF93FF938091C600D4
:10095000809330018DE20E948E048EE30E948E040B
:10096000809130010E948E0480913001813321F406
:1009700085B1806285B903C085B18F7D85B9FF914E
:10098000EF91BF91AF919F918F917F916F915F9107
:100990004F913F912F910F900FBE0F901F90189580
:1009A000BB274A3031F4992322F4BDE2909581951A
:1009B0009F4F0C94DC04BB27FB015527AA27880F07
:1009C000991FAA1FA41710F0A41B83955051B9F7C3
:1009D000A05DAA3308F0A95DA193009779F7B11142
:1009E000B1931192CB010C94F504DC01FC01672F4B
:1009F00071917723E1F7329704C07C916D937083F6
:0E0A00006291AE17BF07C8F30895F894FFCFB8
:100A0E002564004341442030007C004341442031A2
:100A1E00006F004341442032002A0041435449569E
:0C0A2E004944414420494949002D000082
:00000001FF
