S01300004143544956494441445F562E73726563D3
S11300000C9473010C9490010C9490010C94900145
S11300100C9490010C9490010C9490010C94900118
S11300200C9490010C9490010C9490010C94D403C2
S11300300C9490010C9490010C9490010C949001F8
S11300400C94B7030C9490010C9452050C949001F9
S11300500C9490010C9490010C9490010C949001D8
S11300600C9490010C9490018E0451055105510596
S113007051055105510551055105510551055105CC
S113008051055105510551055105F204510551051C
S113009051052405510551055105510551055105D9
S11300A0510551055105510575045105A704510524
S11300B0510551055105510551055105510551058C
S11300C0C004D9043D050B055105430451055105F0
S11300D051055C041200AE01A83F0120000221007A
S11300E07F02220007004001D30000A100C801DA0A
S11300F01201817F00A400A601D58001D9C201DBD1
S113010020018D1400AF000000000081811881815E
S11301100007000700147F147F14242A7F2A122367
S11301201308646236495522500005030000001C80
S11301302241000041221C0014083E081408083E15
S11301400808005030000008080808080060600033
S11301500020100804023E5149453E00427F400001
S113016042615149462141454B311814127F1027F1
S1130170454545393C4A4949300171090503364929
S1130180494936064949291E0036360000005636CC
S11301900000081422410014141414140041221401
S11301A0080201510906324979413E7E1111117E3E
S11301B07F494949363E414141227F4141221C7FCA
S11301C0494949417F090909013E4149497A7F0862
S11301D008087F00417F41002040413F017F08140F
S11301E022417F404040407F020C027F7F04081080
S11301F07F3E4141413E7F090909063E4151215E4E
S11302007F09192946464949493101017F01013FC6
S11302104040403F1F2040201F3F4038403F631470
S113022008146307087008076151494543007F417A
S1130230410002040810200041417F000402010231
S113024004404040404000010204002054545478CB
S11302507F484444383844444420384444487F3830
S113026054545418087E0901020C5252523E7F081D
S113027004047800447D40002040443D007F102861
S1130280440000417F40007C041804787C08040486
S11302907838444444387C14141408081414147C26
S11302A07C080404084854545420043F4440203C2F
S11302B04040207C1C2040201C3C4030403C4428D2
S11302C01028440C5050503C4464544C44000836AC
S11302D0410000007F0000004136080010080810AB
S11302E008000000000011241FBECFEFD8E0DEBFDD
S11302F0CDBF12E0A0E0B1E0EAE1FBE002C005906E
S11303000D92A835B107D9F722E0A8E5B2E001C003
S11303101D92AE35B207E1F70E94E9010C948B05FA
S11303200C94000082E08093B800E9EBF0E0808157
S1130330908182708160892B80830895E9EBF0E0DD
S113034080818775808384EA8093BC008091BC009F
S11303508823E4F78091B900887F883049F0809140
S1130360B900887F803131F08091B900887F089589
S113037080E0089580E00895880F8093BB0084E8AE
S11303808093BC008091BC008823E4F78091B9007D
S1130390887F883121F08091B900887F089580E0BA
S11303A008958093BB0084E88093BC008091BC00D6
S11303B08823E4F78091B900887F883221F0809106
S11303C0B900887F089580E0089584E98093BC0093
S11303D008950E947B030E943902C0E0D0E01EC051
S11303E060E08CE10E94970260E080E091E00E946E
S11303F064036FE08C2F0E94970260E08CE091E030
S11304000E9464032FEF89EF90E0215080409040D8
S1130410E1F700C000000E9439022196CF36D105D1
S1130420FCF28FEC90E00E9421040E94E603789491
S11304306BE080E00E94970260E08EE091E00E9411
S11304406403F6CFCF93C82F0E949E01811103C08D
S11304508C2F0E94BC01CF910895CF93C82F80E8C0
S11304600E94D101811103C08C2F0E94D101CF9130
S11304700895CF93DF938CE30E942202811115C06B
S113048080E40E94D101811110C0C0E0D0E006C018
S113049080E00E94D101811108C02196C11584E039
S11304A0D807B0F30E94E50180E0DF91CF91089571
S11304B00F931F93CF93DF93C82FD62F142F022FA0
S11304C08CE30E94220281112DC081E20E942D0240
S11304D0811128C08C2F0E942D02811123C08D2FE1
S11304E00E942D0281111EC08C2F90E090935B021C
S11304F080935A0282E20E942D02811113C0812F3F
S11305000E942D0281110EC0802F0E942D028111A4
S113051009C0812F90E090935902809358020E9461
S1130520E50180E0DF91CF911F910F910895462F4F
S113053027E06FE70E9458020895CF938823D4F4EC
S1130540C62F673098F410925B0210925A026091A1
S11305505802709159026F5F7F4F709359026093F4
S1130560580280E00E949702811107C0C73020F032
S113057081E003C080E001C080E0CF9108950F9333
S11305801F93CF93DF93C82F862F8F7090E000972F
S113059009F03DC0607F11F4D0E001C0D0E8809143
S11305A05A02609158028B5F0E949D02811187C09C
S11305B08CE30E942202811182C080E40E94D10156
S11305C081117DC020E020C08C2F90E0809711E045
S11305D0120FFC01EE0FFF1FEE0FFF1FE80FF91FB4
S11305E0E20FF11DEA5FFE4F84918D2B0E94D10131
S11305F0811165C080915A0290915B02019690939B
S11306005B0280935A02212F2530F0F247C00197F4
S113061009F043C0607F11F4D0E001C0D0E88091BC
S11306205A0260915802865F0E949D02811147C060
S11306308CE30E942202811142C080E40E94D10115
S113064081113DC020E026C08C2F90E0809701E00E
S1130650020FFC01EE0FFF1FEE0FFF1FE80FF91F43
S1130660E20FF11DEA5FFE4F14911D2B812F0E94B2
S1130670D101811124C0812F0E94D10181111FC099
S113068080915A0290915B02029690935B02809350
S11306905A02202F2530C0F201C0D0E08D2F0E94D5
S11306A0D10181110CC080915A0290915B02019694
S11306B090935B0280935A020E94E50180E0DF91EF
S11306C0CF911F910F9108950F931F93CF93DF93B1
S11306D08C01D62FC0E004C0CF5F6D2F0E94BF02F3
S11306E0F801EC0FF11D80818111F6CFDF91CF91DC
S11306F01F910F910895DF92EF92FF920F931F9332
S1130700CF93DF93E4EDF0E0D4900E9492018CE368
S11307100E942202811123C0C5EDD0E01BC0FE015E
S113072014913196849122960E942D02882369F0B7
S113073016C07E01FFEFEF1AFF0AFE0184910E94AA
S11307402D02102F81110BC0E7010FEF010F1111C2
S1130750F0CFDA94D110E3CF0E94E50180E0DF917D
S1130760CF911F910F91FF90EF90DF9008951F920A
S11307700F920FB60F9211248F939F9380915C0276
S11307808F5F80935C0280915C028D3730F095B16D
S113079080E2892785B910925C029F918F910F9016
S11307A00FBE0F901F9018951F920F920FB60F92C5
S11307B011248F939F9395B180E2892785B99F91E6
S11307C08F910F900FBE0F901F9018958AB1886675
S11307D08AB984B5836A84BDE0EBF0E080818362EA
S11307E0808385B5836085BDE1EBF0E08081846022
S11307F08083089587BD089588BD08958093B400CB
S113080008959091C00095FFFCCF8093C600089591
S11308100F931F93CF93DF938C01C0E0D0E009C006
S1130820F801EC0FFD1F8081882331F021960E948E
S11308300104C034D105A4F3DF91CF911F910F912E
S11308400895E2ECF0E020812F73208322E02093CE
S1130850C0009093C5008093C40086E08083E1ECDF
S1130860F0E088E18083808180688083089590E04F
S1130870FC01E154F109E633F10508F012C1EC5C26
S1130880FF4F0C94850580E00E94FA038FEF0E94CD
S1130890FC038FEF0E94FE0383E291E00E940804B0
S11308A06AE080E00E9497020E94390260E083E3DC
S11308B091E00E94640308958FEF0E94FA0380E0A0
S11308C00E94FC038FEF0E94FE038EE391E00E94DE
S11308D008046AE080E00E9497020E94390260E006
S11308E08FE491E00E94640308958FEF0E94FA035D
S11308F08FEF0E94FC0380E00E94FE038BE591E0F1
S11309000E9408046AE080E00E9497020E94390273
S113091060E08BE691E00E946403089580E00E9409
S1130920FA0380E00E94FC038FEF0E94FE0386E737
S113093091E00E9408046AE080E00E9497020E940D
S1130940390260E08BE891E00E94640308958FEF20
S11309500E94FA0380E00E94FC0380E00E94FE03F0
S11309608AE991E00E9408046AE080E00E9497020C
S11309700E94390260E08AEA91E00E9464030895CB
S113098080E00E94FA038FEF0E94FC0380E00E9443
S1130990FE0385EB91E00E9408046AE080E00E9477
S11309A097020E94390260E088EC91E00E9464039F
S11309B0089580E00E94FA0384EB0E94FC038FEF09
S11309C00E94FE0386ED91E00E9408046AE080E044
S11309D00E9497020E94390260E089EE91E00E9431
S11309E06403089580E00E94FA038BEE0E94FC03E6
S11309F08CE60E94FE0387EF91E00E9408046AE0FF
S1130A0080E00E9497020E94390260E087E092E051
S1130A100E946403089585E70E94FA0384ED0E940E
S1130A20FC038DE10E94FE0382E192E00E9408042F
S1130A306AE080E00E9497020E94390260E085E249
S1130A4092E00E946403089587E60E94FA0384E01A
S1130A500E94FC0387E60E94FE0383E392E00E9467
S1130A6008046AE080E00E9497020E94390260E074
S1130A7083E492E00E94640308958FEF0E94FA03D6
S1130A808FEF0E94FC038FEF0E94FE036AE080E078
S1130A900E9497020E94390260E08EE492E00E9474
S1130AA0640308951F920F920FB60F9211242F938F
S1130AB03F934F935F936F937F938F939F93AF93E2
S1130AC0BF93EF93FF938091C60080935D02809162
S1130AD05D020E9437042FEF87EA91E6215080409F
S1130AE09040E1F700C00000FF91EF91BF91AF91FA
S1130AF09F918F917F916F915F914F913F912F9132
S1130B000F900FBE0F901F901895EE0FFF1F0590CA
S10D0B10F491E02D0994F894FFCF4E
S1130B1A4143544956494441442056002D004573E3
S1130B2A706572616E646F20636F6D616E646F20AD
S1130B3A3C3300526F6A6F20656E63656E64696444
S1130B4A6F0A00434F4C4F5220524F4A4F0056658A
S1130B5A72646520656E63656E6469646F0A004336
S1130B6A4F4C4F5220564552444500417A756C20E9
S1130B7A656E63656E6469646F0A00434F4C4F5235
S1130B8A20415A554C00416D617272696C6C6F2038
S1130B9A656E63656E6469646F0A00434F4C4F5215
S1130BAA20414D4152494C4C4F004379616E2065B6
S1130BBA6E63656E6469646F0A00434F4C4F52203A
S1130BCA4359414E004D6167656E746120656E63D9
S1130BDA656E6469646F0A00434F4C4F52204D415D
S1130BEA47454E5441004E6172616E6A6120656EDA
S1130BFA63656E6469646F0A00434F4C4F52204E1A
S1130C0A4152414E4A4100526F736120656E6365D9
S1130C1A6E6469646F0A00434F4C4F5220524F531B
S1130C2A41005075727075726120656E63656E64F9
S1130C3A69646F0A00434F4C4F5220505552505525
S1130C4A5241004C696D6120656E63656E64696426
S1130C5A6F0A00434F4C4F52204C494D41005349AF
S10B0C6A4E20434F4C4F520091
S9030000FC
